:100000000EC026C127C026C025C024C023C022C0E0
:1000100021C020C092C01EC01DC01CC01BC0112426
:100020001FBECFE5D1E0DEBFCDBF10E0A0E6B0E05F
:10003000E4E7F6E002C005900D92A836B107D9F7C3
:1000400020E0A8E6B0E001C01D92AF37B207E1F7AB
:1000500076D20EC3D5CFE199FECF1CBA8EBB6DBB55
:10006000E29AE19A0895E199FECF8EBBE09A8DB3B2
:10007000089587E886B98CE087B90895369A349B4D
:10008000FECF85B190E0982F882724B1822B089568
:10009000C49ABC9AE7E7F0E083E790E0918380831D
:1000A00012821482158284E08383E9E6F0E02FE671
:1000B00030E031832083128214821582838387E6A5
:1000C00089BD80E189BF82E08ABD789412BE9FEF2E
:1000D00090937D0080937E000895CF93C82FC09A9F
:1000E0006C2F87E790E0B7D18111FACFC09885E0F7
:1000F00080937E0083B7826083BFCF910895809103
:100100007E00817008958BB780648BBF88E08093F8
:100110007E00089580916B000895CF93DF931F9226
:10012000CDB7DEB7BE016F5F7F4F89E690E0D9D1D2
:1001300089810F90DF91CF9108951F920F920FB692
:100140000F9211242F933F934F935F936F937F935D
:100150008F939F93AF93BF93CF93EF93FF93209190
:100160007E0022FF3AC080917900811107C083B7D9
:10017000887F83BF82E080937E0058C080917D009D
:100180008F3F21F4C49810927D0050C080917D0073
:10019000883061F4C19AC49ACFEFC0937D0087E79D
:1001A00090E0BED1C0937D00C19840C020917D00F9
:1001B00080917C00E0917700F0917800E80FF11DCC
:1001C000808190E002C0959587952A95E2F780FF9F
:1001D00002C0C49A19C0C49817C027E629BD20914F
:1001E0007D002830A8F4C39AC39846B330917D00AF
:1001F0002091680042FB882780F901C0880F3A955A
:10020000EAF7822B8093680080917D008F5F0CC09D
:100210006091680089E690E01ED183B7887F83BF34
:100220008BB780648BBF8FEF80937D00FF91EF9140
:10023000CF91BF91AF919F918F917F916F915F917E
:100240004F913F912F910F900FBE0F901F901895D7
:100250001F920F920FB60F9211248F938AE989BDD6
:1002600012BE83B7826083BF8BB78F7B8BBF109228
:100270007D00109268008F910F900FBE0F901F901D
:100280001895CF93DF93EC01688180E027D06981D6
:1002900025D06A8123D0C82F81E690E0D1D08C2F61
:1002A0001CDF8C2FDF91CF910895CF93DF93EC016A
:1002B000E8DF91E02C81281390E0892FDF91CF9126
:1002C0000895CF93DF93EC01888107DF898105DFF3
:1002D0008A8103DF8C81DF91CF91FFCE862798E062
:1002E00021E980FD822786959150D9F70895FC0178
:1002F000862F643670F064E68DD120E3280F2083CA
:10030000892F6AE087D1805D8183905D928313821B
:1003100008956A3040F06AE07DD1805D8083905D11
:10032000918312820895805D8083118208952F92B7
:100330003F924F925F926F927F928F929F92AF9275
:10034000BF92CF92DF92EF92FF920F931F93CF93C2
:10035000DF93EC016A017B014F3F51056105710597
:1003600009F008F458C092E0392E24E6822E912C30
:10037000A12CB12CC701B601A501940157D1232BA3
:10038000242B252B59F033942AE030E040E050E054
:10039000C501B40126D14B015C01ECCFC501B4010C
:1003A0002AE030E040E050E041D149015A018E019D
:1003B000232C8AE0482E512C612C712C2A94FFEFBB
:1003C0002F1699F0C701B601A50194012FD1205D28
:1003D000F80121938F016B017C01C501B401A301D8
:1003E000920124D149015A01E9CFC30DD11D1882D0
:1003F000DF91CF911F910F91FF90EF90DF90CF9001
:10040000BF90AF909F908F907F906F905F904F9034
:100410003F902F900895642FCE01DF91CF911F91CF
:100420000F91FF90EF90DF90CF90BF90AF909F9093
:100430008F907F906F905F904F903F902F9057CF0D
:10044000CF93DF93EC018991882311F046DEFBCF37
:10045000DF91CF910895FC01928183819817C8F4B0
:100460008481A081B181A80FB11D6C938481482F34
:1004700050E0238130E0215031094217530714F432
:100480008F5F01C080E0848382818F5F828380E000
:10049000089581E00895FC01A081B18115968C91A9
:1004A00015978F5F15968C93A081B18112968C91D0
:1004B0001297815012968C93A081B18115969C91D0
:1004C000159713968C911397981710F015961C9208
:1004D0000190F081E02D94818381981708F01482B7
:1004E0000895CF93DF9300D0CDB7DEB79A83898389
:1004F000FC012281222371F0DB0185810190F081D2
:10050000E02DE80FF11D80818C93CE010196C3DFB1
:1005100080E001C081E00F900F90DF91CF910895AE
:10052000CF93DF9300D0CDB7DEB79A838983CE0116
:100530000196B1DF0F900F90DF91CF910895CF9387
:10054000DF93CDB7DEB72A970FB6F894DEBF0FBEA4
:10055000CDBF9EDD8EDD87B3836087BB85E5BDDDC6
:10056000CEDD8111FDCF05E381E1F82ECCDDD2DDBA
:100570008823E9F3D2DD8533C9F715E0CBDD83307D
:1005800048F48FEC97E00197F1F700C0000011509C
:10059000A9F7ECCF0E83C1DD8F83BFDD90E0998793
:1005A0008887BBDD8A87CE0106967FDE8823A9F087
:1005B0008F81833329F0893E81F485E38EDD0DC080
:1005C0005DDDF9822F812A839C838B83CE01019686
:1005D00058DE8D83CE01019674DE91DD8111FDCF51
:1005E000C5CFEE27FF27AA27BB2708C0A20FB31F3E
:1005F000E41FF51F220F331F441F551F9695879543
:100600007795679598F37040A9F7009799F7BD0122
:10061000CF010895991B79E004C0991F961708F03F
:10062000961B881F7A95C9F780950895A1E21A2E26
:10063000AA1BBB1BFD010DC0AA1FBB1FEE1FFF1F86
:10064000A217B307E407F50720F0A21BB30BE40BD6
:10065000F50B661F771F881F991F1A9469F760951D
:100660007095809590959B01AC01BD01CF010895D7
:04067000F894FFCF2C
:08067400014352433A2000004B
:00000001FF
