:1000000009C00DC120C01FC01EC01DC07FC01BC0C5
:100010001AC019C011241FBECFE9CDBF10E0A0E661
:10002000B0E0E6E4F3E002C005900D92A236B1071D
:10003000D9F720E0A2E6B0E001C01D92A937B207CF
:10004000E1F76FD17EC1DCCFE199FECF1CBA8EBB48
:100050006DBBE29AE19A0895E199FECF8EBBE09ADA
:100060008DB3089508950895C49ABC9AE1E7F0E02D
:100070008DE690E09183808312821482158284E061
:100080008383E3E6F0E029E630E0318320831282C7
:1000900014821582838399E396BF89BF82E08FBD66
:1000A000789412BE9FEF9093770080937800089524
:1000B000CF93C82F6C2F81E790E0CAD08111FACF7F
:1000C00085E08093780083B7826083BFCF910895E5
:1000D00080917800817008958BB780648BBF88E031
:1000E000809378000895809165000895CF93DF9301
:1000F0001F92CDB7DD27BE016F5F7F4F83E690E093
:10010000E2D089810F90DF91CF9108951F920F92D5
:100110000FB60F9211242F933F934F935F936F93DA
:100120007F938F939F93AF93BF93CF93EF93FF935F
:100130002091780022FF38C080917300811107C0A0
:1001400083B7887F83BF82E08093780056C0809118
:1001500077008F3F21F4C498109277004EC08091B1
:100160007700883051F4C49ACFEFC093770081E7CD
:1001700090E0C8D0C093770040C020917700809174
:100180007600E0917100F0917200E80FF11D80811E
:1001900090E002C0959587952A95E2F780FF02C00E
:1001A000C49A19C0C49817C029E326BF20917700CC
:1001B0002830A8F4C39AC39846B3309177002091B1
:1001C000620041FB882780F901C0880F3A95EAF761
:1001D000822B80936200809177008F5F0CC06091CA
:1001E000620083E690E034D083B7887F83BF8BB70B
:1001F00080648BBF8FEF80937700FF91EF91CF9159
:10020000BF91AF919F918F917F916F915F914F912E
:100210003F912F910F900FBE0F901F9018951F9236
:100220000F920FB60F9211248F9385E586BF12BEF1
:1002300083B7826083BF8BB78F7B8BBF10927700B1
:10024000109262008F910F900FBE0F901F90189523
:10025000FC0192818381981770F48481A081B1811F
:10026000A80FB11D6C9384818F5F848382818F5F1F
:10027000828380E0089581E00895FC01A081B1812E
:1002800015968C9115978F5F15968C93A081B181EF
:1002900012968C911297815012968C93A081B18105
:1002A00015969C91159713968C911397981710F0AB
:1002B00015961C920190F081E02D9481838198170E
:1002C00008F014820895CF93DF9300D0CDB7DD27D7
:1002D0009A838983FC012281222371F0DB018581CD
:1002E0000190F081E02DE80FF11D80818C93CE010B
:1002F0000196C3DF80E001C081E0CE5FCDBFDF911A
:10030000CF910895CF93DF9300D0CDB7DD279A83A7
:100310008983CE010196B1DFCE5FCDBFDF91CF9152
:100320000895A2DE87B38C6087BB85E5C1DED0DE91
:100330008111FDCFD1DED7DE8823E9F3D7DEB8DE29
:06034000FFCFF894FFCF8F
:020346000100B4
:00000001FF
