:1000000009C006C120C01FC01EC01DC071C01BC0DA
:100010001AC019C011241FBECFE9CDBF10E0A0E661
:10002000B0E0E8E8F2E002C005900D92A236B10718
:10003000D9F720E0A2E6B0E001C01D92AF36B207CA
:10004000E1F70DD11FC1DCCFE199FECF1CBA8EBB09
:100050006DBBE29AE19A0895E199FECF8EBBE09ADA
:100060008DB30895089508959091620080E02091E5
:100070006300921739F0933010F49F5F01C090E055
:100080008F5FF5CF0895F0DF93E0981B892F0895D7
:10009000C49ABC9A109264001092650089E386BFEE
:1000A00084E089BF82E08FBD789412BE8FEF809389
:1000B0006E000895CF93C82FE6DF8823E9F3E0911F
:1000C0006300F0E0E659FF4FC083809163008F5FCB
:1000D000809363001092600083B7826083BFCF91EA
:1000E00008958BB780648BBF81E080936000089592
:1000F0001F920F920FB60F9211242F933F934F939D
:100100008F939F93EF93FF932091600021114AC03A
:100110009091630080916200981304C083B7887F38
:1001200083BF6AC080916E008F3F31F4C09AC0983F
:10013000C49810926E0060C080916E008830B9F44F
:10014000C49A8FEF80936E00809162008F5F8093DE
:10015000620080916200843010F010926200809101
:100160006300843010F0109263008FEF18C0C39AC0
:10017000C398E0916200F0E0E659FF4F8081209142
:100180006E0090E002C0959587952A95E2F780FF72
:1001900002C0C49A01C0C49880916E008F5F8093A2
:1001A0006E002AC029E326BF20916E002830A8F4F3
:1001B000C39AC39846B330916E00E0916400F0E0BA
:1001C000EA59FF4F208142FB882780F901C0880F40
:1001D0003A95EAF7822B8083DFCF809164008F5FAE
:1001E0008093640080916400843030F483B7887F0A
:1001F00083BF8BB780648BBFFF91EF919F918F91ED
:100200004F913F912F910F900FBE0F901F90189517
:100210001F920F920FB60F9211248F93EF93FF93BB
:1002200085E586BF12BE83B7826083BF8BB78F7BA5
:100230008BBF10926E00E0916400F0E0EA59FF4F2E
:100240001082FF91EF918F910F900FBE0F901F9032
:10025000189580E001CF81E0FFCE82E0FDCE18DF6F
:1002600087B3896087BB85E525DF86E523DF87E5E2
:1002700021DF88E51FDF89E51DDF80E61BDF81E6E2
:0802800019DFFFCFF894FFCF56
:02028800010073
:00000001FF
