:100000000EC0DCC027C026C025C024C023C022C02B
:1000100021C020C050C01EC01DC01CC01BC0112468
:100020001FBECFE5D1E0DEBFCDBF10E0A0E6B0E05F
:10003000ECE2F2E002C005900D92A236B107D9F7CA
:1000400020E0A2E6B0E001C01D92AF36B207E1F7B2
:10005000D6D0EAC0D5CFC49ABC9A10926400109250
:10006000650088E689BD80E189BF82E08ABD789419
:1000700012BE0895E0916300F0E0E659FF4F8083DF
:10008000809163008F5F8093630080916300843070
:1000900010F010926300109260008FEF80936E005A
:1000A00083B7826083BF08958BB780648BBF81E084
:1000B0008093600008951F920F920FB60F92112443
:1000C0002F933F934F938F939F93EF93FF932091A1
:1000D0006000211138C090916300809162009813F4
:1000E00004C083B7887F83BF5DC080916E008F3F5F
:1000F00031F4C09AC098C49810926E0053C0809199
:100100006E00883051F4C49A8FEF80936E00809116
:1001100062008F5F8093620045C0C39AC398E091EC
:100120006200F0E0E659FF4F808120916E0090E080
:1001300002C0959587952A95E2F780FF02C0C49A80
:100140001CC0C4981AC028E629BD20916E00283032
:10015000D0F4C39AC39846B330916E00E091640026
:10016000F0E0EA59FF4F208142FB882780F901C067
:10017000880F3A95EAF7822B808380916E008F5F1B
:1001800080936E000FC0809164008F5F8093640045
:1001900080916400843030F483B7887F83BF8BB74D
:1001A00080648BBFFF91EF919F918F914F913F9111
:1001B0002F910F900FBE0F901F9018951F920F92C6
:1001C0000FB60F9211248F93EF93FF938CE989BDA3
:1001D00012BE83B7826083BF8BB78F7B8BBF1092B9
:1001E0006E00E0916400F0E0EA59FF4F1082FF9149
:1001F000EF918F910F900FBE0F901F9018952BDFEE
:1002000087B3896087BB87E335DF8FE097E201978B
:10021000F1F700C0000048DF809164008823E1F31B
:0C0220008091660027DFFFCFF894FFCF2D
:02022C000100CF
:00000001FF
