:100000000EC03CC125C024C09CC122C021C020C05C
:100010001FC01EC0A8C01CC01BC01AC019C011241C
:100020001FBECFEDCDBF10E0A0E6B0E0E8ECF5E0FC
:1000300002C005900D92A236B107D9F720E0A2E6E2
:10004000B0E001C01D92AC37B207E1F71BD2BAC2D3
:10005000D7CFE199FECF1CBA8EBB6DBBE29AE19A75
:100060000895E199FECF8EBBE09A8DB3089587E89D
:1000700086B98CE087B90895369A349BFECF25B1B6
:1000800030E0322F222784B1282B40E050E061EC91
:1000900077EF80E190E074D2C9010895C49ABC9AC8
:1000A000E5E7F0E081E790E091838083128214829B
:1000B000158284E08383E7E6F0E02DE630E03183CB
:1000C0002083128214821582838387E689BD80E1B2
:1000D00089BF82E08ABD789412BE9FEF90937B0027
:1000E000809365000895CF93C82FC09A6C2F85E741
:1000F00090E054D18111FACFC09885E080936500DB
:1001000083B7826083BFCF9108958091650081702D
:1001100008958BB780648BBF88E080936500089555
:100120008BB78F7B8BBF83B7887F83BF82E0809341
:1001300065000895809169000895CF93DF931F9221
:10014000CDB7DD27BE016F5F7F4F87E690E06CD1B2
:1001500089810F90DF91CF910895E7E6F0E0148256
:100160001582128208951F920F920FB60F921124DA
:100170002F933F934F935F936F937F938F939F93AF
:10018000AF93BF93CF93EF93FF932091650022FF2E
:100190003AC080917700811107C083B7887F83BF01
:1001A00082E08093650058C080917B008F3F21F4EE
:1001B000C49810927B0050C080917B00883061F41D
:1001C000C19AC49ACFEFC0937B0085E790E04BD1F2
:1001D000C0937B00C19840C020917B0080917A0041
:1001E000E0917500F0917600E80FF11D808190E0BC
:1001F00002C0959587952A95E2F780FF02C0C49AC0
:1002000019C0C49817C027E629BD20917B0028306B
:10021000A8F4C39AC39846B330917B00209166003E
:1002200042FB882780F901C0880F3A95EAF7822BB4
:100230008093660080917B008F5F0CC060916600A8
:1002400087E690E0ABD083B7887F83BF8BB78064AD
:100250008BBF8FEF80937B00FF91EF91CF91BF9188
:10026000AF919F918F917F916F915F914F913F914E
:100270002F910F900FBE0F901F9018951F920F9205
:100280000FB60F9211248F938AE989BD12BE83B7EE
:10029000826083BF8BB78F7B8BBF10927B001092E5
:1002A00066008F910F900FBE0F901F901895CF93FF
:1002B000DF93EC01888117DF898115DF8B8113DFE4
:1002C0008A8111DF8C81DF91CF910DCF862798E055
:1002D00021E980FD822786959150D9F708951F93D3
:1002E000CF93DF93EC01688180E0F0DF6981EEDF7E
:1002F0001A816B81EBDF612FDF91CF911F91E6CFE8
:10030000CF93DF93EC01EBDF91E02C81281390E099
:10031000892FDF91CF910895AFDE20916300309156
:1003200064002817390718F4C39A82E007C088B31D
:10033000887088BB8FB58C7F8FBD84E0809365000B
:1003400008951F920F920FB60F9211242F933F938F
:100350004F935F936F937F938F939F93AF93BF93CD
:10036000EF93FF93809162008F5F843018F4809345
:10037000620003C010926200CFDFFF91EF91BF9146
:10038000AF919F918F917F916F915F914F913F912D
:100390002F910F900FBE0F901F901895FC01928126
:1003A00083819817C8F48481A081B181A80FB11D01
:1003B0006C938481482F50E0238130E02150310933
:1003C0004217530714F48F5F01C080E08483828159
:1003D0008F5F828380E0089581E00895FC01A08111
:1003E000B18115968C9115978F5F15968C93A0818E
:1003F000B18112968C911297815012968C93A081A4
:10040000B18115969C91159713968C911397981717
:1004100010F015961C920190F081E02D948183815B
:10042000981708F014820895CF93DF9300D0CDB7CA
:10043000DD279A838983FC012281222371F0DB016D
:1004400085810190F081E02DE80FF11D80818C9372
:10045000CE010196C3DF80E001C081E0CE5FCDBF59
:10046000DF91CF910895CF93DF9300D0CDB7DD27F3
:100470009A838983CE010196B1DFCE5FCDBFDF9134
:10048000CF910895CF93DF93CDB7DD27CA50CDBF6D
:1004900005DEEDDD84EF8DBD89B7846089BF80B74F
:1004A000806C80BF87B3836087BB85E51CDE2DDE53
:1004B0008111FDCF05E381E1F82E2BDE85B7877E24
:1004C000806185BF85B7806285BF889585B78F7D40
:1004D00085BF30DE8823E9F330DE853371F415E023
:1004E00029DE843098F48FEC97E00197F1F700C093
:1004F00000001150A9F731DEE0CF12DE2EDE8FE0D2
:1005000097E20197F1F700C00000D7CF0E8315DE08
:100510008F8313DE1886898710DE28853985282B7E
:10052000398728870ADE8A87CE010696E9DE882386
:1005300019F18F818535A9F0893E81F08333E1F48B
:100540009BDDF9822F812A839C838B83CE010196C8
:10055000C6DE8D83CE010196AADE0EC085E3C3DD23
:100560000BC08B819C8190936400809363001FBCBF
:10057000D3DE80B7836080BFC8DD8111FDCF9DCF02
:10058000A1E21A2EAA1BBB1BFD010DC0AA1FBB1F97
:10059000EE1FFF1FA217B307E407F50720F0A21B09
:1005A000B30BE40BF50B661F771F881F991F1A9476
:1005B00069F760957095809590959B01AC01BD01A0
:0805C000CF010895F894FFCF6C
:0205C800010030
:00000001FF
