:1000000000400020C1040000090500000B050000AD
:1000100000000000000000000000000000000000E0
:100020000000000000000000000000000D050000BE
:1000300000000000000000000F0500001105000096
:100040001305000013050000130500001305000050
:100050001305000000000000130500001305000058
:100060001305000013050000130500001305000030
:100070001305000013050000130500001305000020
:100080001305000013050000130500001305000010
:100090001305000013050000130500001305000000
:1000A0001305000013050000000000000000000020
:1000B0000000000000000000000000000000000040
:1000C00010B5064C2378002B07D1054B002B02D02E
:1000D000044800E000BF0123237010BD6800002029
:1000E000000000003405000008B5084B002B03D0C9
:1000F0000748084900E000BF07480368002B00D10B
:1001000008BD064B002BFBD09847F9E70000000024
:10011000340500006C000020680000200000000092
:10012000164B002B00D1144B9D46402292029A1A86
:10013000924600218B460F461348144A121A00F0CB
:1001400067F80F4B002B00D098470E4B002B00D0C8
:1001500098470020002104000D000D48002802D01F
:100160000C4800E000BF00F02DF82000290000F04E
:10017000CFF800F011F8C046000008000040002051
:100180000000000000000000680000208400002043
:100190000000000000000000084B10B5041C002BFC
:1001A00002D0002100E000BF054B1868836A002BD5
:1001B00000D09847201C00F033F8C0460000000033
:1001C000300500000E4B70B500251E1C0D4CE41AC6
:1001D000A410A54204D0AB00F35898470135F8E7C6
:1001E00000F098F9084B00251E1C084CE41AA410D6
:1001F000A54204D0AB00F35898470135F8E770BD2D
:1002000060000020600000206000002064000020EA
:10021000031C8218934202D019700133FAE7704729
:10022000FEE7C04680B582B000AF7860396006E076
:100230007B68181C00F038F87B6801337B607A68B3
:100240003B689A42F4D9BD4602B080BD90B583B0F8
:1002500000AF78600C1C101C191CFB1C221C1A70AF
:10026000BB1C021C1A707B1C0A1C1A70A023DB0525
:10027000FA1C1178BA1C1278520011437A1C1278B9
:10028000920011431822BA181278120211431C224C
:10029000BA181278120411437A68C132FF32920000
:1002A000D150BD4603B090BD80B584B002AF786038
:1002B0007A680023009300230193101C012101227E
:1002C0000023FFF7C3FFBD4602B080BD80B582B0FA
:1002D00000AF7860A023DA057B6801219940A12353
:1002E000DB00D150BD4602B080BDC04680B582B0B3
:1002F00000AF7860A023DB057A68012191400A1CD9
:1003000002495A50BD4602B080BDC0460C050000EF
:1003100080B500AF12201621FFF784FF1220FFF7EF
:10032000E5FF1320FFF7D2FF1420FFF7DFFF1520B2
:10033000FFF7CCFF1620FFF7D9FF96235B00181CB0
:1003400000F09CF81220FFF7C1FF1320FFF7CEFF4B
:100350001420FFF7BBFF1520FFF7C8FF1620FFF79B
:10036000B5FFFA235B00181C00F088F8D6E7C046FA
:1003700080B500AF00F01CF8031E06D0094B0A4AF6
:100380001A600A4B802212021A6000F051F8031E14
:1003900005D08023DA05C123DB000121D150BD4601
:1003A00080BDC04604050040DFFF07C0186C004058
:1003B00080B500AF1A4B1B68FF221340012B2AD1D6
:1003C000184B1B680F22134025D1174B1B68F022D6
:1003D000134006D1154B1B68F022134001D10123B5
:1003E0001AE0114B1B68F0221340102B06D10F4B63
:1003F0001B68F022134001D101230DE00A4B1B685A
:10040000F0221340302B06D1084B1B68F02213401A
:1004100001D1012300E00023181CBD4680BDC04669
:10042000E00F00F0E40F00F0E80F00F0EC0F00F038
:1004300080B500AF0D4B1B68FF221340012B11D17B
:100440000B4B1B680F2213400CD10A4B1B68F02288
:100450001340402B06D1084B1B68F022134001D1FA
:10046000012300E00023181CBD4680BDE00F00F012
:10047000E40F00F0E80F00F0EC0F00F080B584B05E
:1004800000AF786014E07B68013B7B600B4BFB6046
:10049000FB68181C0138C046C046C046C046C0466E
:1004A000C046C046C046C046C046C046C046F1D160
:1004B0007B68002BE7D1BD4604B080BDE703000098
:1004C00003210A4802680A430260094802680A4395
:1004D00002600849084A094B9B1A03DD043BC858CF
:1004E000D050FBDC06488047064800472405004002
:1004F000540500403C05000000000020680000207A
:100500007103000021010000FEE7FEE7FEE7FEE7C1
:10051000FEE7FEE7F8B5C046F8BC08BC9E4670474B
:10052000F8B5C046F8BC08BC9E46704743000000C2
:0405300000000020A7
:08053400ECFBFF7F0100000059
:10053C0000000000000000000000000000000000AF
:10054C00000000000000000000000000000000009F
:10055C002C0500000000000000000000000000005E
:10056C00000000000000000000000000000000007F
:10057C00000000000000000000000000000000006F
:10058C00000000000000000000000000000000005F
:08059C00E9000000C1000000AD
:04000003000004C134
:00000001FF
